{
  "contractName": "Transaction",
  "abi": [
    {
      "anonymous": false,
      "inputs": [
        {
          "indexed": true,
          "internalType": "address",
          "name": "userAddress",
          "type": "address"
        },
        {
          "indexed": false,
          "internalType": "string",
          "name": "itemName",
          "type": "string"
        },
        {
          "indexed": false,
          "internalType": "uint256",
          "name": "itemPrice",
          "type": "uint256"
        },
        {
          "indexed": false,
          "internalType": "uint256",
          "name": "purchasedTime",
          "type": "uint256"
        },
        {
          "indexed": false,
          "internalType": "uint256",
          "name": "assetId",
          "type": "uint256"
        },
        {
          "indexed": false,
          "internalType": "string",
          "name": "userName",
          "type": "string"
        },
        {
          "indexed": false,
          "internalType": "string",
          "name": "userEmail",
          "type": "string"
        }
      ],
      "name": "PurchaseRecorded",
      "type": "event"
    },
    {
      "inputs": [
        {
          "internalType": "address",
          "name": "",
          "type": "address"
        },
        {
          "internalType": "uint256",
          "name": "",
          "type": "uint256"
        }
      ],
      "name": "userPurchases",
      "outputs": [
        {
          "internalType": "string",
          "name": "itemName",
          "type": "string"
        },
        {
          "internalType": "uint256",
          "name": "itemPrice",
          "type": "uint256"
        },
        {
          "internalType": "uint256",
          "name": "purchasedTime",
          "type": "uint256"
        },
        {
          "internalType": "uint256",
          "name": "assetId",
          "type": "uint256"
        },
        {
          "internalType": "string",
          "name": "userName",
          "type": "string"
        },
        {
          "internalType": "string",
          "name": "userEmail",
          "type": "string"
        }
      ],
      "stateMutability": "view",
      "type": "function",
      "constant": true
    },
    {
      "inputs": [
        {
          "internalType": "string",
          "name": "_itemName",
          "type": "string"
        },
        {
          "internalType": "uint256",
          "name": "_itemPrice",
          "type": "uint256"
        },
        {
          "internalType": "uint256",
          "name": "_assetId",
          "type": "uint256"
        },
        {
          "internalType": "string",
          "name": "_userName",
          "type": "string"
        },
        {
          "internalType": "string",
          "name": "_userEmail",
          "type": "string"
        }
      ],
      "name": "recordPurchase",
      "outputs": [],
      "stateMutability": "payable",
      "type": "function",
      "payable": true
    },
    {
      "inputs": [],
      "name": "getUserPurchaseCount",
      "outputs": [
        {
          "internalType": "uint256",
          "name": "",
          "type": "uint256"
        }
      ],
      "stateMutability": "view",
      "type": "function",
      "constant": true
    },
    {
      "inputs": [
        {
          "internalType": "uint256",
          "name": "startIndex",
          "type": "uint256"
        },
        {
          "internalType": "uint256",
          "name": "count",
          "type": "uint256"
        }
      ],
      "name": "getUserPurchaseData",
      "outputs": [
        {
          "internalType": "string[]",
          "name": "",
          "type": "string[]"
        },
        {
          "internalType": "uint256[]",
          "name": "",
          "type": "uint256[]"
        },
        {
          "internalType": "uint256[]",
          "name": "",
          "type": "uint256[]"
        },
        {
          "internalType": "uint256[]",
          "name": "",
          "type": "uint256[]"
        }
      ],
      "stateMutability": "view",
      "type": "function",
      "constant": true
    }
  ],
  "bytecode": "0x608060405234801561001057600080fd5b50610ebf806100206000396000f3fe60806040526004361061003f5760003560e01c806340204d24146100445780639ecc91f41461006f578063aa64c3431461009f578063cf2c0334146100b4575b600080fd5b34801561005057600080fd5b506100596100e6565b6040516100669190610dcf565b60405180910390f35b34801561007b57600080fd5b5061008f61008a366004610b5e565b6100f9565b6040516100669493929190610c04565b6100b26100ad366004610ac6565b610602565b005b3480156100c057600080fd5b506100d46100cf366004610a90565b610785565b60405161006696959493929190610ca2565b3360009081526020819052604090205490565b3360009081526020819052604090205460609081908190819086106101395760405162461bcd60e51b815260040161013090610d6d565b60405180910390fd5b60006101458688610dd8565b336000908152602081905260409020549091508111156101715750336000908152602081905260409020545b60008667ffffffffffffffff81111561019a57634e487b7160e01b600052604160045260246000fd5b6040519080825280602002602001820160405280156101cd57816020015b60608152602001906001900390816101b85790505b50905060008767ffffffffffffffff8111156101f957634e487b7160e01b600052604160045260246000fd5b604051908082528060200260200182016040528015610222578160200160208202803683370190505b50905060008867ffffffffffffffff81111561024e57634e487b7160e01b600052604160045260246000fd5b604051908082528060200260200182016040528015610277578160200160208202803683370190505b50905060008967ffffffffffffffff8111156102a357634e487b7160e01b600052604160045260246000fd5b6040519080825280602002602001820160405280156102cc578160200160208202803683370190505b5090508a5b858110156105f05733600090815260208190526040812080548390811061030857634e487b7160e01b600052603260045260246000fd5b90600052602060002090600602016040518060c001604052908160008201805461033190610e07565b80601f016020809104026020016040519081016040528092919081815260200182805461035d90610e07565b80156103aa5780601f1061037f576101008083540402835291602001916103aa565b820191906000526020600020905b81548152906001019060200180831161038d57829003601f168201915b505050505081526020016001820154815260200160028201548152602001600382015481526020016004820180546103e190610e07565b80601f016020809104026020016040519081016040528092919081815260200182805461040d90610e07565b801561045a5780601f1061042f5761010080835404028352916020019161045a565b820191906000526020600020905b81548152906001019060200180831161043d57829003601f168201915b5050505050815260200160058201805461047390610e07565b80601f016020809104026020016040519081016040528092919081815260200182805461049f90610e07565b80156104ec5780601f106104c1576101008083540402835291602001916104ec565b820191906000526020600020905b8154815290600101906020018083116104cf57829003601f168201915b50505091909252505081519192508790506105078f85610df0565b8151811061052557634e487b7160e01b600052603260045260246000fd5b60200260200101819052508060200151858e846105429190610df0565b8151811061056057634e487b7160e01b600052603260045260246000fd5b602090810291909101015260408101518461057b8f85610df0565b8151811061059957634e487b7160e01b600052603260045260246000fd5b60209081029190910101526060810151836105b48f85610df0565b815181106105d257634e487b7160e01b600052603260045260246000fd5b602090810291909101015250806105e881610e42565b9150506102d1565b50929a91995097509095509350505050565b60008551116106235760405162461bcd60e51b815260040161013090610d3e565b600084116106435760405162461bcd60e51b815260040161013090610cfa565b60008251118015610655575060008151115b6106715760405162461bcd60e51b815260040161013090610d9a565b6040805160c081018252868152602080820187905242828401819052606083018790526080830186905260a0830185905233600090815280835293842080546001810182559085529382902083518051929585946006909102909201926106db9284920190610976565b5060208281015160018301556040830151600283015560608301516003830155608083015180516107129260048501920190610976565b5060a0820151805161072e916005840191602090910190610976565b505050336001600160a01b03167f6976cc69f8d828152c904a49fe7453f835e863381f018abf74a7faf30521e4b388888589898960405161077496959493929190610ca2565b60405180910390a250505050505050565b600060205281600052604060002081815481106107a157600080fd5b9060005260206000209060060201600091509150508060000180546107c590610e07565b80601f01602080910402602001604051908101604052809291908181526020018280546107f190610e07565b801561083e5780601f106108135761010080835404028352916020019161083e565b820191906000526020600020905b81548152906001019060200180831161082157829003601f168201915b50505050509080600101549080600201549080600301549080600401805461086590610e07565b80601f016020809104026020016040519081016040528092919081815260200182805461089190610e07565b80156108de5780601f106108b3576101008083540402835291602001916108de565b820191906000526020600020905b8154815290600101906020018083116108c157829003601f168201915b5050505050908060050180546108f390610e07565b80601f016020809104026020016040519081016040528092919081815260200182805461091f90610e07565b801561096c5780601f106109415761010080835404028352916020019161096c565b820191906000526020600020905b81548152906001019060200180831161094f57829003601f168201915b5050505050905086565b82805461098290610e07565b90600052602060002090601f0160209004810192826109a457600085556109ea565b82601f106109bd57805160ff19168380011785556109ea565b828001600101855582156109ea579182015b828111156109ea5782518255916020019190600101906109cf565b506109f69291506109fa565b5090565b5b808211156109f657600081556001016109fb565b600082601f830112610a1f578081fd5b813567ffffffffffffffff80821115610a3a57610a3a610e73565b604051601f8301601f191681016020018281118282101715610a5e57610a5e610e73565b604052828152848301602001861015610a75578384fd5b82602086016020830137918201602001929092529392505050565b60008060408385031215610aa2578182fd5b82356001600160a01b0381168114610ab8578283fd5b946020939093013593505050565b600080600080600060a08688031215610add578081fd5b853567ffffffffffffffff80821115610af4578283fd5b610b0089838a01610a0f565b965060208801359550604088013594506060880135915080821115610b23578283fd5b610b2f89838a01610a0f565b93506080880135915080821115610b44578283fd5b50610b5188828901610a0f565b9150509295509295909350565b60008060408385031215610b70578182fd5b50508035926020909101359150565b6000815180845260208085019450808401835b83811015610bae57815187529582019590820190600101610b92565b509495945050505050565b60008151808452815b81811015610bde57602081850181015186830182015201610bc2565b81811115610bef5782602083870101525b50601f01601f19169290920160200192915050565b6000608082016080835280875180835260a0850191506020925060a0838202860101838a01855b83811015610c5957609f19888403018552610c47838351610bb9565b94860194925090850190600101610c2b565b505085810384870152610c6c818a610b7f565b93505050508281036040840152610c838186610b7f565b90508281036060840152610c978185610b7f565b979650505050505050565b600060c08252610cb560c0830189610bb9565b8760208401528660408401528560608401528281036080840152610cd98186610bb9565b905082810360a0840152610ced8185610bb9565b9998505050505050505050565b60208082526024908201527f4974656d207072696365206d7573742062652067726561746572207468616e206040820152637a65726f60e01b606082015260800190565b602080825260159082015274125d195b481b985b59481a5cc81c995c5d5a5c9959605a1b604082015260600190565b602080825260139082015272092dcecc2d8d2c840e6e8c2e4e840d2dcc8caf606b1b604082015260600190565b6020808252818101527f55736572206e616d6520616e6420656d61696c20617265207265717569726564604082015260600190565b90815260200190565b60008219821115610deb57610deb610e5d565b500190565b600082821015610e0257610e02610e5d565b500390565b600281046001821680610e1b57607f821691505b60208210811415610e3c57634e487b7160e01b600052602260045260246000fd5b50919050565b6000600019821415610e5657610e56610e5d565b5060010190565b634e487b7160e01b600052601160045260246000fd5b634e487b7160e01b600052604160045260246000fdfea2646970667358221220c245907987cda52d4ffd520392396bc0c2b4705fd685b67c831daff462558a9164736f6c63430008000033",
  "immutableReferences": {},
  "source": "// SPDX-License-Identifier: MIT\r\npragma solidity >=0.4.22 <0.9.0;\r\n\r\ncontract Transaction {\r\n    struct Purchase {\r\n        string itemName;\r\n        uint256 itemPrice;\r\n        uint256 purchasedTime;\r\n        uint256 assetId;\r\n        string userName; // New field to store the user's name\r\n        string userEmail; // New field to store the user's email\r\n    }\r\n\r\n    mapping(address => Purchase[]) public userPurchases;\r\n\r\n    event PurchaseRecorded(address indexed userAddress, string itemName, uint256 itemPrice, uint256 purchasedTime, uint256 assetId, string userName, string userEmail);\r\n\r\n    function recordPurchase(string memory _itemName, uint256 _itemPrice, uint256 _assetId, string memory _userName, string memory _userEmail) public payable {\r\n        require(bytes(_itemName).length > 0, \"Item name is required\");\r\n        require(_itemPrice > 0, \"Item price must be greater than zero\");\r\n        require(bytes(_userName).length > 0 && bytes(_userEmail).length > 0, \"User name and email are required\");\r\n\r\n        uint256 purchasedTime = block.timestamp;\r\n        Purchase memory newPurchase = Purchase(_itemName, _itemPrice, purchasedTime, _assetId, _userName, _userEmail);\r\n        userPurchases[msg.sender].push(newPurchase);\r\n\r\n        emit PurchaseRecorded(msg.sender, _itemName, _itemPrice, purchasedTime, _assetId, _userName, _userEmail);\r\n    }\r\n\r\n    function getUserPurchaseCount() public view returns (uint256) {\r\n        return userPurchases[msg.sender].length;\r\n    }\r\n\r\n    function getUserPurchaseData(uint256 startIndex, uint256 count) public view returns (string[] memory, uint256[] memory, uint256[] memory, uint256[] memory) {\r\n        require(startIndex < userPurchases[msg.sender].length, \"Invalid start index\");\r\n\r\n        uint256 endIndex = startIndex + count;\r\n        if (endIndex > userPurchases[msg.sender].length) {\r\n            endIndex = userPurchases[msg.sender].length;\r\n        }\r\n\r\n        string[] memory itemNames = new string[](count);\r\n        uint256[] memory itemPrices = new uint256[](count);\r\n        uint256[] memory purchaseTimes = new uint256[](count);\r\n        uint256[] memory assetIds = new uint256[](count);\r\n\r\n        for (uint256 i = startIndex; i < endIndex; i++) {\r\n            Purchase memory purchase = userPurchases[msg.sender][i];\r\n            itemNames[i - startIndex] = purchase.itemName;\r\n            itemPrices[i - startIndex] = purchase.itemPrice;\r\n            purchaseTimes[i - startIndex] = purchase.purchasedTime;\r\n            assetIds[i - startIndex] = purchase.assetId;\r\n        }\r\n\r\n        return (itemNames, itemPrices, purchaseTimes, assetIds);\r\n    }\r\n}\r\n",
  "sourcePath": "C:\\Users\\User\\Desktop\\y2\\inno\\assignment2_third_try\\contracts\\transaction.sol",
  "compiler": {
    "name": "solc",
    "version": "0.8.0+commit.c7dfd78e.Emscripten.clang"
  },
  "schemaVersion": "3.4.16",
  "updatedAt": "2023-10-15T07:26:08.851Z",
  "networkType": "ethereum",
  "devdoc": {
    "kind": "dev",
    "methods": {},
    "version": 1
  },
  "userdoc": {
    "kind": "user",
    "methods": {},
    "version": 1
  }
}