{
  "contractName": "Transaction",
  "abi": [
    {
      "anonymous": false,
      "inputs": [
        {
          "indexed": true,
          "internalType": "address",
          "name": "userAddress",
          "type": "address"
        },
        {
          "indexed": false,
          "internalType": "string",
          "name": "itemName",
          "type": "string"
        },
        {
          "indexed": false,
          "internalType": "uint256",
          "name": "itemPrice",
          "type": "uint256"
        },
        {
          "indexed": false,
          "internalType": "uint256",
          "name": "purchasedTime",
          "type": "uint256"
        },
        {
          "indexed": false,
          "internalType": "uint256",
          "name": "assetId",
          "type": "uint256"
        }
      ],
      "name": "PurchaseRecorded",
      "type": "event"
    },
    {
      "inputs": [
        {
          "internalType": "address",
          "name": "",
          "type": "address"
        },
        {
          "internalType": "uint256",
          "name": "",
          "type": "uint256"
        }
      ],
      "name": "userPurchases",
      "outputs": [
        {
          "internalType": "string",
          "name": "itemName",
          "type": "string"
        },
        {
          "internalType": "uint256",
          "name": "itemPrice",
          "type": "uint256"
        },
        {
          "internalType": "uint256",
          "name": "purchasedTime",
          "type": "uint256"
        },
        {
          "internalType": "uint256",
          "name": "assetId",
          "type": "uint256"
        }
      ],
      "stateMutability": "view",
      "type": "function",
      "constant": true
    },
    {
      "inputs": [
        {
          "internalType": "address",
          "name": "",
          "type": "address"
        }
      ],
      "name": "users",
      "outputs": [
        {
          "internalType": "string",
          "name": "name",
          "type": "string"
        },
        {
          "internalType": "string",
          "name": "email",
          "type": "string"
        }
      ],
      "stateMutability": "view",
      "type": "function",
      "constant": true
    },
    {
      "inputs": [
        {
          "internalType": "string",
          "name": "_name",
          "type": "string"
        },
        {
          "internalType": "string",
          "name": "_email",
          "type": "string"
        }
      ],
      "name": "registerUser",
      "outputs": [],
      "stateMutability": "nonpayable",
      "type": "function"
    },
    {
      "inputs": [
        {
          "internalType": "string",
          "name": "_itemName",
          "type": "string"
        },
        {
          "internalType": "uint256",
          "name": "_itemPrice",
          "type": "uint256"
        },
        {
          "internalType": "uint256",
          "name": "_assetId",
          "type": "uint256"
        }
      ],
      "name": "recordPurchase",
      "outputs": [],
      "stateMutability": "nonpayable",
      "type": "function"
    },
    {
      "inputs": [],
      "name": "getUserPurchaseCount",
      "outputs": [
        {
          "internalType": "uint256",
          "name": "",
          "type": "uint256"
        }
      ],
      "stateMutability": "view",
      "type": "function",
      "constant": true
    },
    {
      "inputs": [
        {
          "internalType": "uint256",
          "name": "startTime",
          "type": "uint256"
        },
        {
          "internalType": "uint256",
          "name": "endTime",
          "type": "uint256"
        }
      ],
      "name": "getUserPurchasesByTimeRange",
      "outputs": [
        {
          "internalType": "string[]",
          "name": "",
          "type": "string[]"
        },
        {
          "internalType": "uint256[]",
          "name": "",
          "type": "uint256[]"
        },
        {
          "internalType": "uint256[]",
          "name": "",
          "type": "uint256[]"
        },
        {
          "internalType": "uint256[]",
          "name": "",
          "type": "uint256[]"
        }
      ],
      "stateMutability": "view",
      "type": "function",
      "constant": true
    }
  ],
  "bytecode": "0x608060405234801561001057600080fd5b50610e99806100206000396000f3fe608060405234801561001057600080fd5b50600436106100625760003560e01c80631d2e4afd146100675780631e8e7a1a1461007c57806340204d241461008f578063a87430ba146100ad578063cf2c0334146100ce578063dacbd10c146100f1575b600080fd5b61007a610075366004610a50565b610114565b005b61007a61008a366004610ab1565b6101da565b61009761031e565b6040516100a49190610de2565b60405180910390f35b6100c06100bb366004610a06565b610331565b6040516100a4929190610c41565b6100e16100dc366004610a27565b61045d565b6040516100a49493929190610c6f565b6101046100ff366004610afd565b610532565b6040516100a49493929190610ba3565b60008251118015610126575060008151115b61014b5760405162461bcd60e51b815260040161014290610dab565b60405180910390fd5b336000908152602081905260409020805461016590610deb565b1590506101845760405162461bcd60e51b815260040161014290610d74565b60408051808201825283815260208082018490523360009081528082529290922081518051929391926101ba92849201906108d0565b5060208281015180516101d392600185019201906108d0565b5050505050565b60008351116101fb5760405162461bcd60e51b815260040161014290610d0e565b6000821161021b5760405162461bcd60e51b815260040161014290610cca565b336000908152602081905260408120805461023590610deb565b9050116102545760405162461bcd60e51b815260040161014290610d3d565b6040805160808101825284815260208082018590524282840181905260608301859052336000908152600180845294812080549586018155815282902083518051929585946004909102909201926102af92849201906108d0565b506020820151816001015560408201518160020155606082015181600301555050336001600160a01b03167f2a9e2fd41ad46107ea48e7b04459a9bae17eefbb61d91fd92ee73eec1ad37f1f8686858760405161030f9493929190610c6f565b60405180910390a25050505050565b3360009081526001602052604090205490565b60006020819052908152604090208054819061034c90610deb565b80601f016020809104026020016040519081016040528092919081815260200182805461037890610deb565b80156103c55780601f1061039a576101008083540402835291602001916103c5565b820191906000526020600020905b8154815290600101906020018083116103a857829003601f168201915b5050505050908060010180546103da90610deb565b80601f016020809104026020016040519081016040528092919081815260200182805461040690610deb565b80156104535780601f1061042857610100808354040283529160200191610453565b820191906000526020600020905b81548152906001019060200180831161043657829003601f168201915b5050505050905082565b6001602052816000526040600020818154811061047957600080fd5b90600052602060002090600402016000915091505080600001805461049d90610deb565b80601f01602080910402602001604051908101604052809291908181526020018280546104c990610deb565b80156105165780601f106104eb57610100808354040283529160200191610516565b820191906000526020600020905b8154815290600101906020018083116104f957829003601f168201915b5050505050908060010154908060020154908060030154905084565b606080606080848611156105585760405162461bcd60e51b815260040161014290610c9e565b33600090815260016020526040812054908167ffffffffffffffff81111561059057634e487b7160e01b600052604160045260246000fd5b6040519080825280602002602001820160405280156105c357816020015b60608152602001906001900390816105ae5790505b50905060008267ffffffffffffffff8111156105ef57634e487b7160e01b600052604160045260246000fd5b604051908082528060200260200182016040528015610618578160200160208202803683370190505b50905060008367ffffffffffffffff81111561064457634e487b7160e01b600052604160045260246000fd5b60405190808252806020026020018201604052801561066d578160200160208202803683370190505b50905060008467ffffffffffffffff81111561069957634e487b7160e01b600052604160045260246000fd5b6040519080825280602002602001820160405280156106c2578160200160208202803683370190505b50905060005b858110156108be573360009081526001602052604081208054839081106106ff57634e487b7160e01b600052603260045260246000fd5b906000526020600020906004020160405180608001604052908160008201805461072890610deb565b80601f016020809104026020016040519081016040528092919081815260200182805461075490610deb565b80156107a15780601f10610776576101008083540402835291602001916107a1565b820191906000526020600020905b81548152906001019060200180831161078457829003601f168201915b50505050508152602001600182015481526020016002820154815260200160038201548152505090508c8160400151101580156107e257508b816040015111155b156108ab57806000015186838151811061080c57634e487b7160e01b600052603260045260246000fd5b6020026020010181905250806020015185838151811061083c57634e487b7160e01b600052603260045260246000fd5b602002602001018181525050806040015184838151811061086d57634e487b7160e01b600052603260045260246000fd5b602002602001018181525050806060015183838151811061089e57634e487b7160e01b600052603260045260246000fd5b6020026020010181815250505b50806108b681610e26565b9150506106c8565b50929a91995097509095509350505050565b8280546108dc90610deb565b90600052602060002090601f0160209004810192826108fe5760008555610944565b82601f1061091757805160ff1916838001178555610944565b82800160010185558215610944579182015b82811115610944578251825591602001919060010190610929565b50610950929150610954565b5090565b5b808211156109505760008155600101610955565b80356001600160a01b038116811461098057600080fd5b919050565b600082601f830112610995578081fd5b813567ffffffffffffffff808211156109b0576109b0610e4d565b604051601f8301601f1916810160200182811182821017156109d4576109d4610e4d565b6040528281528483016020018610156109eb578384fd5b82602086016020830137918201602001929092529392505050565b600060208284031215610a17578081fd5b610a2082610969565b9392505050565b60008060408385031215610a39578081fd5b610a4283610969565b946020939093013593505050565b60008060408385031215610a62578182fd5b823567ffffffffffffffff80821115610a79578384fd5b610a8586838701610985565b93506020850135915080821115610a9a578283fd5b50610aa785828601610985565b9150509250929050565b600080600060608486031215610ac5578081fd5b833567ffffffffffffffff811115610adb578182fd5b610ae786828701610985565b9660208601359650604090950135949350505050565b60008060408385031215610b0f578182fd5b50508035926020909101359150565b6000815180845260208085019450808401835b83811015610b4d57815187529582019590820190600101610b31565b509495945050505050565b60008151808452815b81811015610b7d57602081850181015186830182015201610b61565b81811115610b8e5782602083870101525b50601f01601f19169290920160200192915050565b6000608082016080835280875180835260a0850191506020925060a0838202860101838a01855b83811015610bf857609f19888403018552610be6838351610b58565b94860194925090850190600101610bca565b505085810384870152610c0b818a610b1e565b93505050508281036040840152610c228186610b1e565b90508281036060840152610c368185610b1e565b979650505050505050565b600060408252610c546040830185610b58565b8281036020840152610c668185610b58565b95945050505050565b600060808252610c826080830187610b58565b6020830195909552506040810192909252606090910152919050565b602080825260129082015271496e76616c69642074696d652072616e676560701b604082015260600190565b60208082526024908201527f4974656d207072696365206d7573742062652067726561746572207468616e206040820152637a65726f60e01b606082015260800190565b602080825260159082015274125d195b481b985b59481a5cc81c995c5d5a5c9959605a1b604082015260600190565b60208082526017908201527f55736572206d7573742062652072656769737465726564000000000000000000604082015260600190565b60208082526017908201527f5573657220616c72656164792072656769737465726564000000000000000000604082015260600190565b6020808252601b908201527f4e616d6520616e6420656d61696c206172652072657175697265640000000000604082015260600190565b90815260200190565b600281046001821680610dff57607f821691505b60208210811415610e2057634e487b7160e01b600052602260045260246000fd5b50919050565b6000600019821415610e4657634e487b7160e01b81526011600452602481fd5b5060010190565b634e487b7160e01b600052604160045260246000fdfea2646970667358221220324c71aed8f9a284702d7e88fc305b28d0c07a80c53ade140d5fd8b3bd2b7f0d64736f6c63430008000033",
  "immutableReferences": {},
  "source": "// SPDX-License-Identifier: MIT\r\npragma solidity >=0.4.22 <0.9.0;\r\n\r\ncontract Transaction {\r\n    struct Purchase {\r\n        string itemName;\r\n        uint256 itemPrice;\r\n        uint256 purchasedTime;\r\n        uint256 assetId; // New variable\r\n    }\r\n\r\n    struct User {\r\n        string name;\r\n        string email;\r\n    }\r\n\r\n    mapping(address => User) public users;\r\n    mapping(address => Purchase[]) public userPurchases;\r\n\r\n    event PurchaseRecorded(address indexed userAddress, string itemName, uint256 itemPrice, uint256 purchasedTime, uint256 assetId); // Updated event\r\n\r\n    function registerUser(string memory _name, string memory _email) public {\r\n        require(bytes(_name).length > 0 && bytes(_email).length > 0, \"Name and email are required\");\r\n        require(bytes(users[msg.sender].name).length == 0, \"User already registered\");\r\n\r\n        users[msg.sender] = User(_name, _email);\r\n    }\r\n\r\n    function recordPurchase(string memory _itemName, uint256 _itemPrice, uint256 _assetId) public {\r\n        require(bytes(_itemName).length > 0, \"Item name is required\");\r\n        require(_itemPrice > 0, \"Item price must be greater than zero\");\r\n        require(bytes(users[msg.sender].name).length > 0, \"User must be registered\");\r\n\r\n        uint256 purchasedTime = block.timestamp;\r\n        Purchase memory newPurchase = Purchase(_itemName, _itemPrice, purchasedTime, _assetId); // Updated Purchase struct\r\n        userPurchases[msg.sender].push(newPurchase);\r\n\r\n        emit PurchaseRecorded(msg.sender, _itemName, _itemPrice, purchasedTime, _assetId); // Updated event\r\n    }\r\n\r\n    function getUserPurchaseCount() public view returns (uint256) {\r\n        return userPurchases[msg.sender].length;\r\n    }\r\n\r\n    function getUserPurchasesByTimeRange(uint256 startTime, uint256 endTime) public view returns (string[] memory, uint256[] memory, uint256[] memory, uint256[] memory) { // Updated return values\r\n        require(startTime <= endTime, \"Invalid time range\");\r\n\r\n        uint256 purchaseCount = userPurchases[msg.sender].length;\r\n        string[] memory itemNames = new string[](purchaseCount);\r\n        uint256[] memory itemPrices = new uint256[](purchaseCount);\r\n        uint256[] memory purchaseTimes = new uint256[](purchaseCount);\r\n        uint256[] memory assetIds = new uint256[](purchaseCount); // New array for assetIds\r\n\r\n        for (uint256 i = 0; i < purchaseCount; i++) {\r\n            Purchase memory purchase = userPurchases[msg.sender][i];\r\n            if (purchase.purchasedTime >= startTime && purchase.purchasedTime <= endTime) {\r\n                itemNames[i] = purchase.itemName;\r\n                itemPrices[i] = purchase.itemPrice;\r\n                purchaseTimes[i] = purchase.purchasedTime;\r\n                assetIds[i] = purchase.assetId; // Store assetId\r\n            }\r\n        }\r\n\r\n        return (itemNames, itemPrices, purchaseTimes, assetIds); // Updated return values\r\n    }\r\n\r\n\r\n}\r\n",
  "sourcePath": "C:\\Users\\User\\Desktop\\y2\\inno\\assignment2_third_try\\contracts\\transaction.sol",
  "compiler": {
    "name": "solc",
    "version": "0.8.0+commit.c7dfd78e.Emscripten.clang"
  },
  "schemaVersion": "3.4.16",
  "updatedAt": "2023-10-15T04:24:10.136Z",
  "networkType": "ethereum",
  "devdoc": {
    "kind": "dev",
    "methods": {},
    "version": 1
  },
  "userdoc": {
    "kind": "user",
    "methods": {},
    "version": 1
  }
}